{
  "contractName": "FlashLoanTemplate",
  "abi": [
    {
      "constant": false,
      "inputs": [
        {
          "internalType": "address",
          "name": "sender",
          "type": "address"
        },
        {
          "components": [
            {
              "internalType": "address",
              "name": "owner",
              "type": "address"
            },
            {
              "internalType": "uint256",
              "name": "number",
              "type": "uint256"
            }
          ],
          "internalType": "struct Account.Info",
          "name": "account",
          "type": "tuple"
        },
        {
          "internalType": "bytes",
          "name": "data",
          "type": "bytes"
        }
      ],
      "name": "callFunction",
      "outputs": [],
      "payable": false,
      "stateMutability": "nonpayable",
      "type": "function"
    },
    {
      "constant": false,
      "inputs": [
        {
          "internalType": "address",
          "name": "_solo",
          "type": "address"
        },
        {
          "internalType": "address",
          "name": "_token",
          "type": "address"
        },
        {
          "internalType": "uint256",
          "name": "_amount",
          "type": "uint256"
        }
      ],
      "name": "initiateFlashLoan",
      "outputs": [],
      "payable": false,
      "stateMutability": "nonpayable",
      "type": "function"
    }
  ],
  "bytecode": "0x608060405234801561001057600080fd5b50611551806100206000396000f3fe608060405234801561001057600080fd5b50600436106100365760003560e01c80638b4187131461003b578063f484012314610057575b600080fd5b61005560048036036100509190810190610c05565b610073565b005b610071600480360361006c9190810190610bb6565b6101a4565b005b61007b610890565b8180602001905161008f9190810190610c95565b90506000816000015173ffffffffffffffffffffffffffffffffffffffff166370a08231306040518263ffffffff1660e01b81526004016100d0919061116f565b60206040518083038186803b1580156100e857600080fd5b505afa1580156100fc573d6000803e3d6000fd5b505050506040513d601f19601f820116820180604052506101209190810190610cbe565b90508160200151811015610169576040517f08c379a00000000000000000000000000000000000000000000000000000000081526004016101609061120a565b60405180910390fd5b6040517f08c379a000000000000000000000000000000000000000000000000000000000815260040161019b9061124a565b60405180910390fd5b600083905060006101b58585610417565b905060006101c2846105c9565b90508473ffffffffffffffffffffffffffffffffffffffff1663095ea7b387836040518363ffffffff1660e01b81526004016101ff92919061118a565b602060405180830381600087803b15801561021957600080fd5b505af115801561022d573d6000803e3d6000fd5b505050506040513d601f19601f820116820180604052506102519190810190610c6c565b506060600360405190808252806020026020018201604052801561028f57816020015b61027c6108c0565b8152602001906001900390816102745790505b50905061029c83866105e6565b816000815181106102a957fe5b602002602001018190525061030660405180604001604052808873ffffffffffffffffffffffffffffffffffffffff168152602001848152506040516020016102f2919061126a565b60405160208183030381529060405261069f565b8160018151811061031357fe5b60200260200101819052506103288383610749565b8160028151811061033557fe5b60200260200101819052506060600160405190808252806020026020018201604052801561037d57816020015b61036a61092c565b8152602001906001900390816103625790505b509050610388610802565b8160008151811061039557fe5b60200260200101819052508473ffffffffffffffffffffffffffffffffffffffff1663a67a6a4582846040518363ffffffff1660e01b81526004016103db9291906111b3565b600060405180830381600087803b1580156103f557600080fd5b505af1158015610409573d6000803e3d6000fd5b505050505050505050505050565b60008083905060008173ffffffffffffffffffffffffffffffffffffffff1663295c39a56040518163ffffffff1660e01b815260040160206040518083038186803b15801561046557600080fd5b505afa158015610479573d6000803e3d6000fd5b505050506040513d601f19601f8201168201806040525061049d9190810190610cbe565b9050600080600090505b82811015610587578373ffffffffffffffffffffffffffffffffffffffff1663062bd3e9826040518263ffffffff1660e01b81526004016104e89190611285565b60206040518083038186803b15801561050057600080fd5b505afa158015610514573d6000803e3d6000fd5b505050506040513d601f19601f820116820180604052506105389190810190610b8d565b91508573ffffffffffffffffffffffffffffffffffffffff168273ffffffffffffffffffffffffffffffffffffffff16141561057a57809450505050506105c3565b80806001019150506104a7565b506040517f08c379a00000000000000000000000000000000000000000000000000000000081526004016105ba9061122a565b60405180910390fd5b92915050565b60006105df60028361083b90919063ffffffff16565b9050919050565b6105ee61095c565b6040518061010001604052806001600881111561060757fe5b81526020016000815260200160405180608001604052806000151581526020016000600181111561063457fe5b81526020016000600181111561064657fe5b8152602001858152508152602001848152602001600081526020013073ffffffffffffffffffffffffffffffffffffffff1681526020016000815260200160405180602001604052806000815250815250905092915050565b6106a761095c565b6040518061010001604052806008808111156106bf57fe5b8152602001600081526020016040518060800160405280600015158152602001600060018111156106ec57fe5b8152602001600060018111156106fe57fe5b81526020016000815250815260200160008152602001600081526020013073ffffffffffffffffffffffffffffffffffffffff16815260200160008152602001838152509050919050565b61075161095c565b6040518061010001604052806000600881111561076a57fe5b81526020016000815260200160405180608001604052806001151581526020016000600181111561079757fe5b8152602001600060018111156107a957fe5b8152602001858152508152602001848152602001600081526020013073ffffffffffffffffffffffffffffffffffffffff1681526020016000815260200160405180602001604052806000815250815250905092915050565b61080a6109c8565b60405180604001604052803073ffffffffffffffffffffffffffffffffffffffff1681526020016001815250905090565b600080828401905083811015610886576040517f08c379a000000000000000000000000000000000000000000000000000000000815260040161087d906111ea565b60405180910390fd5b8091505092915050565b6040518060400160405280600073ffffffffffffffffffffffffffffffffffffffff168152602001600081525090565b604051806101000160405280600060088111156108d957fe5b8152602001600081526020016108ed6109f8565b81526020016000815260200160008152602001600073ffffffffffffffffffffffffffffffffffffffff16815260200160008152602001606081525090565b6040518060400160405280600073ffffffffffffffffffffffffffffffffffffffff168152602001600081525090565b6040518061010001604052806000600881111561097557fe5b8152602001600081526020016109896109f8565b81526020016000815260200160008152602001600073ffffffffffffffffffffffffffffffffffffffff16815260200160008152602001606081525090565b6040518060400160405280600073ffffffffffffffffffffffffffffffffffffffff168152602001600081525090565b604051806080016040528060001515815260200160006001811115610a1957fe5b815260200160006001811115610a2b57fe5b8152602001600081525090565b600081359050610a47816114c9565b92915050565b600081519050610a5c816114c9565b92915050565b600081519050610a71816114e0565b92915050565b600082601f830112610a8857600080fd5b8135610a9b610a96826112cd565b6112a0565b91508082526020830160208301858383011115610ab757600080fd5b610ac283828461144f565b50505092915050565b600060408284031215610add57600080fd5b610ae760406112a0565b90506000610af784828501610a38565b6000830152506020610b0b84828501610b63565b60208301525092915050565b600060408284031215610b2957600080fd5b610b3360406112a0565b90506000610b4384828501610a4d565b6000830152506020610b5784828501610b78565b60208301525092915050565b600081359050610b72816114f7565b92915050565b600081519050610b87816114f7565b92915050565b600060208284031215610b9f57600080fd5b6000610bad84828501610a4d565b91505092915050565b600080600060608486031215610bcb57600080fd5b6000610bd986828701610a38565b9350506020610bea86828701610a38565b9250506040610bfb86828701610b63565b9150509250925092565b600080600060808486031215610c1a57600080fd5b6000610c2886828701610a38565b9350506020610c3986828701610acb565b925050606084013567ffffffffffffffff811115610c5657600080fd5b610c6286828701610a77565b9150509250925092565b600060208284031215610c7e57600080fd5b6000610c8c84828501610a62565b91505092915050565b600060408284031215610ca757600080fd5b6000610cb584828501610b17565b91505092915050565b600060208284031215610cd057600080fd5b6000610cde84828501610b78565b91505092915050565b6000610cf38383610feb565b905092915050565b6000610d0783836110f3565b60408301905092915050565b610d1c81611398565b82525050565b610d2b81611398565b82525050565b6000610d3c82611319565b610d468185611354565b935083602082028501610d58856112f9565b8060005b85811015610d945784840389528151610d758582610ce7565b9450610d808361133a565b925060208a01995050600181019050610d5c565b50829750879550505050505092915050565b6000610db182611324565b610dbb8185611365565b9350610dc683611309565b8060005b83811015610df7578151610dde8882610cfb565b9750610de983611347565b925050600181019050610dca565b5085935050505092915050565b610e0d816113aa565b82525050565b6000610e1e8261132f565b610e288185611376565b9350610e3881856020860161145e565b610e4181611491565b840191505092915050565b610e5581611419565b82525050565b610e648161142b565b82525050565b610e738161143d565b82525050565b6000610e86601b83611387565b91507f536166654d6174683a206164646974696f6e206f766572666c6f7700000000006000830152602082019050919050565b6000610ec6602483611387565b91507f4e6f7420656e6f7567682066756e647320746f2072657061792064796478206c60008301527f6f616e21000000000000000000000000000000000000000000000000000000006020830152604082019050919050565b6000610f2c602483611387565b91507f4e6f206d61726b6574496420666f756e6420666f722070726f7669646564207460008301527f6f6b656e000000000000000000000000000000000000000000000000000000006020830152604082019050919050565b6000610f92603083611387565b91507f21596f7520676f7420646573697265642066756e64732c206e6f7720636f646560008301527f207768617420746f20646f206e657874000000000000000000000000000000006020830152604082019050919050565b6000610160830160008301516110046000860182610e4c565b5060208301516110176020860182611151565b50604083015161102a604086018261109e565b50606083015161103d60c0860182611151565b50608083015161105060e0860182611151565b5060a0830151611064610100860182610d13565b5060c0830151611078610120860182611151565b5060e08301518482036101408601526110918282610e13565b9150508091505092915050565b6080820160008201516110b46000850182610e04565b5060208201516110c76020850182610e5b565b5060408201516110da6040850182610e6a565b5060608201516110ed6060850182611151565b50505050565b6040820160008201516111096000850182610d13565b50602082015161111c6020850182611151565b50505050565b6040820160008201516111386000850182610d13565b50602082015161114b6020850182611151565b50505050565b61115a8161140f565b82525050565b6111698161140f565b82525050565b60006020820190506111846000830184610d22565b92915050565b600060408201905061119f6000830185610d22565b6111ac6020830184611160565b9392505050565b600060408201905081810360008301526111cd8185610da6565b905081810360208301526111e18184610d31565b90509392505050565b6000602082019050818103600083015261120381610e79565b9050919050565b6000602082019050818103600083015261122381610eb9565b9050919050565b6000602082019050818103600083015261124381610f1f565b9050919050565b6000602082019050818103600083015261126381610f85565b9050919050565b600060408201905061127f6000830184611122565b92915050565b600060208201905061129a6000830184611160565b92915050565b6000604051905081810181811067ffffffffffffffff821117156112c357600080fd5b8060405250919050565b600067ffffffffffffffff8211156112e457600080fd5b601f19601f8301169050602081019050919050565b6000819050602082019050919050565b6000819050602082019050919050565b600081519050919050565b600081519050919050565b600081519050919050565b6000602082019050919050565b6000602082019050919050565b600082825260208201905092915050565b600082825260208201905092915050565b600082825260208201905092915050565b600082825260208201905092915050565b60006113a3826113ef565b9050919050565b60008115159050919050565b60008190506113c4826114a2565b919050565b60008190506113d7826114af565b919050565b60008190506113ea826114bc565b919050565b600073ffffffffffffffffffffffffffffffffffffffff82169050919050565b6000819050919050565b6000611424826113b6565b9050919050565b6000611436826113c9565b9050919050565b6000611448826113dc565b9050919050565b82818337600083830152505050565b60005b8381101561147c578082015181840152602081019050611461565b8381111561148b576000848401525b50505050565b6000601f19601f8301169050919050565b600981106114ac57fe5b50565b600281106114b957fe5b50565b600281106114c657fe5b50565b6114d281611398565b81146114dd57600080fd5b50565b6114e9816113aa565b81146114f457600080fd5b50565b6115008161140f565b811461150b57600080fd5b5056fea365627a7a723158206f9229e6d07a82330caba048c9a54a6e4661e0436bf1123e49b0995cd2de81086c6578706572696d656e74616cf564736f6c63430005100040",
  "source": "pragma solidity ^0.5.0;\r\npragma experimental ABIEncoderV2;\r\n\r\nimport \"@studydefi/money-legos/dydx/contracts/DydxFlashloanBase.sol\";\r\nimport \"@studydefi/money-legos/dydx/contracts/ICallee.sol\";\r\nimport \"@openzeppelin/contracts/token/ERC20/IERC20.sol\";\r\n\r\ncontract FlashLoanTemplate is ICallee, DydxFlashloanBase {\r\n  struct MyCustomData {\r\n    address token;\r\n    uint256 repayAmount;\r\n  }\r\n\r\n  // This is the function that will be called postLoan\r\n  // i.e. Encode the logic to handle your flashloaned funds here\r\n  function callFunction(address sender, Account.Info memory account, bytes memory data) public {\r\n    MyCustomData memory mcd = abi.decode(data, (MyCustomData));\r\n    uint256 balOfLoanedToken = IERC20(mcd.token).balanceOf(address(this));\r\n\r\n    // Note that you can ignore the line below\r\n    // if your dydx account (this contract in this case)\r\n    // has deposited at least ~2 Wei of assets into the account\r\n    // to balance out the collaterization ratio\r\n    require(\r\n        balOfLoanedToken >= mcd.repayAmount,\r\n        \"Not enough funds to repay dydx loan!\"\r\n    );\r\n    // TODO: Encode your logic here\r\n    // E.g. arbitrage, liquidate accounts, etc\r\n    revert(\"!You got desired funds, now code what to do next\");\r\n  }\r\n\r\n  function initiateFlashLoan(address _solo, address _token, uint256 _amount) external {\r\n    ISoloMargin solo = ISoloMargin(_solo);\r\n\r\n    // Get marketId from token address\r\n    uint256 marketId = _getMarketIdFromTokenAddress(_solo, _token);\r\n\r\n    // Calculate repay amount (_amount + (2 wei))\r\n    // Approve transfer from\r\n    uint256 repayAmount = _getRepaymentAmountInternal(_amount);\r\n    IERC20(_token).approve(_solo, repayAmount);\r\n\r\n    // 1. Withdraw $\r\n    // 2. Call callFunction(...)\r\n    // 3. Deposit back $\r\n    Actions.ActionArgs[] memory operations = new Actions.ActionArgs[](3);\r\n\r\n    operations[0] = _getWithdrawAction(marketId, _amount);\r\n    operations[1] = _getCallAction(\r\n      // Encode MyCustomData for callFunction\r\n      abi.encode(MyCustomData({token: _token, repayAmount: repayAmount}))\r\n    );\r\n    operations[2] = _getDepositAction(marketId, repayAmount);\r\n\r\n    Account.Info[] memory accountInfos = new Account.Info[](1);\r\n    accountInfos[0] = _getAccountInfo();\r\n\r\n    solo.operate(accountInfos, operations);\r\n  }\r\n}",
  "sourcePath": "/Users/zed/Desktop/DAPP_UNIVERSITY/FLASHLOAN_MASTERCLASS/Flashloan_Masterclass_2_Replays/FlashloanLeveragedYieldFarm/src/contracts/FlashLoanTemplate.sol",
  "compiler": {
    "name": "solc",
    "version": "0.5.16+commit.9c3226ce.Emscripten.clang"
  },
  "schemaVersion": "3.4.1",
  "updatedAt": "2021-08-18T11:41:21.025Z",
  "devdoc": {
    "methods": {}
  },
  "userdoc": {
    "methods": {}
  }
}