{
  "contractName": "LeveragedYieldFarm",
  "abi": [
    {
      "inputs": [],
      "payable": false,
      "stateMutability": "nonpayable",
      "type": "constructor"
    },
    {
      "anonymous": false,
      "inputs": [
        {
          "indexed": true,
          "internalType": "address",
          "name": "_from",
          "type": "address"
        },
        {
          "indexed": true,
          "internalType": "bytes32",
          "name": "_id",
          "type": "bytes32"
        },
        {
          "indexed": false,
          "internalType": "uint256",
          "name": "_value",
          "type": "uint256"
        }
      ],
      "name": "FlashLoan",
      "type": "event"
    },
    {
      "payable": true,
      "stateMutability": "payable",
      "type": "fallback"
    },
    {
      "constant": false,
      "inputs": [
        {
          "internalType": "uint256",
          "name": "initialAmount",
          "type": "uint256"
        }
      ],
      "name": "depositDai",
      "outputs": [
        {
          "internalType": "bool",
          "name": "",
          "type": "bool"
        }
      ],
      "payable": false,
      "stateMutability": "nonpayable",
      "type": "function"
    },
    {
      "constant": false,
      "inputs": [
        {
          "internalType": "uint256",
          "name": "initialAmount",
          "type": "uint256"
        }
      ],
      "name": "withdrawDai",
      "outputs": [
        {
          "internalType": "bool",
          "name": "",
          "type": "bool"
        }
      ],
      "payable": false,
      "stateMutability": "nonpayable",
      "type": "function"
    },
    {
      "constant": false,
      "inputs": [
        {
          "internalType": "address",
          "name": "sender",
          "type": "address"
        },
        {
          "components": [
            {
              "internalType": "address",
              "name": "owner",
              "type": "address"
            },
            {
              "internalType": "uint256",
              "name": "number",
              "type": "uint256"
            }
          ],
          "internalType": "struct Account.Info",
          "name": "account",
          "type": "tuple"
        },
        {
          "internalType": "bytes",
          "name": "data",
          "type": "bytes"
        }
      ],
      "name": "callFunction",
      "outputs": [],
      "payable": false,
      "stateMutability": "nonpayable",
      "type": "function"
    },
    {
      "constant": false,
      "inputs": [
        {
          "internalType": "address",
          "name": "_tokenAddress",
          "type": "address"
        }
      ],
      "name": "withdrawToken",
      "outputs": [],
      "payable": false,
      "stateMutability": "nonpayable",
      "type": "function"
    }
  ],
  "bytecode": "0x6080604052736b175474e89094c44da98b954eedeac495271d0f6000806101000a81548173ffffffffffffffffffffffffffffffffffffffff021916908373ffffffffffffffffffffffffffffffffffffffff1602179055506000809054906101000a900473ffffffffffffffffffffffffffffffffffffffff16600160006101000a81548173ffffffffffffffffffffffffffffffffffffffff021916908373ffffffffffffffffffffffffffffffffffffffff160217905550735d3a536e4d6dbd6114cc1ead35777bab948e3643600260006101000a81548173ffffffffffffffffffffffffffffffffffffffff021916908373ffffffffffffffffffffffffffffffffffffffff160217905550600260009054906101000a900473ffffffffffffffffffffffffffffffffffffffff16600360006101000a81548173ffffffffffffffffffffffffffffffffffffffff021916908373ffffffffffffffffffffffffffffffffffffffff160217905550733d9819210a31b4961b30ef54be2aed79b9c9cd3b600460006101000a81548173ffffffffffffffffffffffffffffffffffffffff021916908373ffffffffffffffffffffffffffffffffffffffff160217905550600460009054906101000a900473ffffffffffffffffffffffffffffffffffffffff16600560006101000a81548173ffffffffffffffffffffffffffffffffffffffff021916908373ffffffffffffffffffffffffffffffffffffffff16021790555073c00e94cb662c3520282e6f5717214004a7f26888600660006101000a81548173ffffffffffffffffffffffffffffffffffffffff021916908373ffffffffffffffffffffffffffffffffffffffff160217905550731e0447b19bb6ecfdae1e4ae1694b0c3659614e4e600760006101000a81548173ffffffffffffffffffffffffffffffffffffffff021916908373ffffffffffffffffffffffffffffffffffffffff160217905550348015620002e157600080fd5b5033600860006101000a81548173ffffffffffffffffffffffffffffffffffffffff021916908373ffffffffffffffffffffffffffffffffffffffff16021790555060606001604051908082528060200260200182016040528015620003565781602001602082028038833980820191505090505b509050600260009054906101000a900473ffffffffffffffffffffffffffffffffffffffff16816000815181106200038a57fe5b602002602001019073ffffffffffffffffffffffffffffffffffffffff16908173ffffffffffffffffffffffffffffffffffffffff16815250506060600560009054906101000a900473ffffffffffffffffffffffffffffffffffffffff1673ffffffffffffffffffffffffffffffffffffffff1663c2998238836040518263ffffffff1660e01b8152600401620004239190620006a3565b600060405180830381600087803b1580156200043e57600080fd5b505af115801562000453573d6000803e3d6000fd5b505050506040513d6000823e3d601f19601f820116820180604052506200047e919081019062000587565b90506000816000815181106200049057fe5b602002602001015114620004db576040517f08c379a0000000000000000000000000000000000000000000000000000000008152600401620004d290620006c7565b60405180910390fd5b5050620007e2565b600082601f830112620004f557600080fd5b81516200050c620005068262000717565b620006e9565b915081818352602084019350602081019050838560208402820111156200053257600080fd5b60005b838110156200056657816200054b888262000570565b84526020840193506020830192505060018101905062000535565b5050505092915050565b6000815190506200058181620007c8565b92915050565b6000602082840312156200059a57600080fd5b600082015167ffffffffffffffff811115620005b557600080fd5b620005c384828501620004e3565b91505092915050565b6000620005da8383620005e6565b60208301905092915050565b620005f1816200078a565b82525050565b6000620006048262000750565b62000610818562000768565b93506200061d8362000740565b8060005b8381101562000654578151620006388882620005cc565b975062000645836200075b565b92505060018101905062000621565b5085935050505092915050565b60006200067060208362000779565b91507f436f6d7074726f6c6c65722e656e7465724d61726b657473206661696c65642e6000830152602082019050919050565b60006020820190508181036000830152620006bf8184620005f7565b905092915050565b60006020820190508181036000830152620006e28162000661565b9050919050565b6000604051905081810181811067ffffffffffffffff821117156200070d57600080fd5b8060405250919050565b600067ffffffffffffffff8211156200072f57600080fd5b602082029050602081019050919050565b6000819050602082019050919050565b600081519050919050565b6000602082019050919050565b600082825260208201905092915050565b600082825260208201905092915050565b600062000797826200079e565b9050919050565b600073ffffffffffffffffffffffffffffffffffffffff82169050919050565b6000819050919050565b620007d381620007be565b8114620007df57600080fd5b50565b61241b80620007f26000396000f3fe60806040526004361061003f5760003560e01c806335842f741461004457806389476069146100815780638b418713146100aa57806393a991af146100d3575b600080fd5b34801561005057600080fd5b5061006b60048036036100669190810190611ac7565b610110565b6040516100789190612063565b60405180910390f35b34801561008d57600080fd5b506100a860048036036100a391908101906119bc565b61021d565b005b3480156100b657600080fd5b506100d160048036036100cc9190810190611a0e565b6103ee565b005b3480156100df57600080fd5b506100fa60048036036100f59190810190611ac7565b61052b565b6040516101079190612063565b60405180910390f35b6000600860009054906101000a900473ffffffffffffffffffffffffffffffffffffffff1673ffffffffffffffffffffffffffffffffffffffff163373ffffffffffffffffffffffffffffffffffffffff16146101a2576040517f08c379a00000000000000000000000000000000000000000000000000000000081526004016101999061207e565b60405180910390fd5b60006003600a8402816101b157fe5b04905060008382039050600060019050610211600760009054906101000a900473ffffffffffffffffffffffffffffffffffffffff166000809054906101000a900473ffffffffffffffffffffffffffffffffffffffff168486856109bc565b60019350505050919050565b600860009054906101000a900473ffffffffffffffffffffffffffffffffffffffff1673ffffffffffffffffffffffffffffffffffffffff163373ffffffffffffffffffffffffffffffffffffffff16146102ad576040517f08c379a00000000000000000000000000000000000000000000000000000000081526004016102a49061207e565b60405180910390fd5b60008173ffffffffffffffffffffffffffffffffffffffff166370a08231306040518263ffffffff1660e01b81526004016102e89190611fbf565b60206040518083038186803b15801561030057600080fd5b505afa158015610314573d6000803e3d6000fd5b505050506040513d601f19601f820116820180604052506103389190810190611af0565b90508173ffffffffffffffffffffffffffffffffffffffff1663a9059cbb600860009054906101000a900473ffffffffffffffffffffffffffffffffffffffff16836040518363ffffffff1660e01b8152600401610397929190611fda565b602060405180830381600087803b1580156103b157600080fd5b505af11580156103c5573d6000803e3d6000fd5b505050506040513d601f19601f820116820180604052506103e99190810190611a75565b505050565b6103f6611687565b8180602001905161040a9190810190611a9e565b90506000816000015173ffffffffffffffffffffffffffffffffffffffff166370a08231306040518263ffffffff1660e01b815260040161044b9190611fbf565b60206040518083038186803b15801561046357600080fd5b505afa158015610477573d6000803e3d6000fd5b505050506040513d601f19601f8201168201806040525061049b9190810190611af0565b905081602001518110156104e4576040517f08c379a00000000000000000000000000000000000000000000000000000000081526004016104db906120be565b60405180910390fd5b600115158260600151151514156105095761050782604001518360200151610c3f565b505b6000151582606001511515141561052457610522610e79565b505b5050505050565b6000600860009054906101000a900473ffffffffffffffffffffffffffffffffffffffff1673ffffffffffffffffffffffffffffffffffffffff163373ffffffffffffffffffffffffffffffffffffffff16146105bd576040517f08c379a00000000000000000000000000000000000000000000000000000000081526004016105b49061207e565b60405180910390fd5b60006003600a8402816105cc57fe5b04905060008382039050600080905061062b600760009054906101000a900473ffffffffffffffffffffffffffffffffffffffff166000809054906101000a900473ffffffffffffffffffffffffffffffffffffffff168486856109bc565b600560009054906101000a900473ffffffffffffffffffffffffffffffffffffffff1673ffffffffffffffffffffffffffffffffffffffff1663e9af0292306040518263ffffffff1660e01b81526004016106869190611fbf565b600060405180830381600087803b1580156106a057600080fd5b505af11580156106b4573d6000803e3d6000fd5b50505050600660009054906101000a900473ffffffffffffffffffffffffffffffffffffffff1673ffffffffffffffffffffffffffffffffffffffff1663a9059cbb600860009054906101000a900473ffffffffffffffffffffffffffffffffffffffff16600660009054906101000a900473ffffffffffffffffffffffffffffffffffffffff1673ffffffffffffffffffffffffffffffffffffffff166370a08231306040518263ffffffff1660e01b81526004016107749190611fbf565b60206040518083038186803b15801561078c57600080fd5b505afa1580156107a0573d6000803e3d6000fd5b505050506040513d601f19601f820116820180604052506107c49190810190611af0565b6040518363ffffffff1660e01b81526004016107e1929190611fda565b602060405180830381600087803b1580156107fb57600080fd5b505af115801561080f573d6000803e3d6000fd5b505050506040513d601f19601f820116820180604052506108339190810190611a75565b50600160009054906101000a900473ffffffffffffffffffffffffffffffffffffffff1673ffffffffffffffffffffffffffffffffffffffff1663a9059cbb600860009054906101000a900473ffffffffffffffffffffffffffffffffffffffff16600160009054906101000a900473ffffffffffffffffffffffffffffffffffffffff1673ffffffffffffffffffffffffffffffffffffffff166370a08231306040518263ffffffff1660e01b81526004016108f09190611fbf565b60206040518083038186803b15801561090857600080fd5b505afa15801561091c573d6000803e3d6000fd5b505050506040513d601f19601f820116820180604052506109409190810190611af0565b6040518363ffffffff1660e01b815260040161095d929190611fda565b602060405180830381600087803b15801561097757600080fd5b505af115801561098b573d6000803e3d6000fd5b505050506040513d601f19601f820116820180604052506109af9190810190611a75565b5060019350505050919050565b600085905060006109cd878761120e565b905060006109da866113c0565b90508673ffffffffffffffffffffffffffffffffffffffff1663095ea7b389836040518363ffffffff1660e01b8152600401610a17929190612003565b602060405180830381600087803b158015610a3157600080fd5b505af1158015610a45573d6000803e3d6000fd5b505050506040513d601f19601f82011682018060405250610a699190810190611a75565b5060606003604051908082528060200260200182016040528015610aa757816020015b610a946116c7565b815260200190600190039081610a8c5790505b509050610ab483886113dd565b81600081518110610ac157fe5b6020026020010181905250610b2c60405180608001604052808a73ffffffffffffffffffffffffffffffffffffffff168152602001848152602001888152602001871515815250604051602001610b1891906120fe565b604051602081830303815290604052611496565b81600181518110610b3957fe5b6020026020010181905250610b4e8383611540565b81600281518110610b5b57fe5b602002602001018190525060606001604051908082528060200260200182016040528015610ba357816020015b610b90611733565b815260200190600190039081610b885790505b509050610bae6115f9565b81600081518110610bbb57fe5b60200260200101819052508473ffffffffffffffffffffffffffffffffffffffff1663a67a6a4582846040518363ffffffff1660e01b8152600401610c0192919061202c565b600060405180830381600087803b158015610c1b57600080fd5b505af1158015610c2f573d6000803e3d6000fd5b5050505050505050505050505050565b6000600160009054906101000a900473ffffffffffffffffffffffffffffffffffffffff1673ffffffffffffffffffffffffffffffffffffffff1663095ea7b3600260009054906101000a900473ffffffffffffffffffffffffffffffffffffffff16856040518363ffffffff1660e01b8152600401610cc0929190612003565b602060405180830381600087803b158015610cda57600080fd5b505af1158015610cee573d6000803e3d6000fd5b505050506040513d601f19601f82011682018060405250610d129190810190611a75565b50600360009054906101000a900473ffffffffffffffffffffffffffffffffffffffff1673ffffffffffffffffffffffffffffffffffffffff1663a0712d68846040518263ffffffff1660e01b8152600401610d6e9190612119565b602060405180830381600087803b158015610d8857600080fd5b505af1158015610d9c573d6000803e3d6000fd5b505050506040513d601f19601f82011682018060405250610dc09190810190611af0565b50600360009054906101000a900473ffffffffffffffffffffffffffffffffffffffff1673ffffffffffffffffffffffffffffffffffffffff1663c5ebeaec836040518263ffffffff1660e01b8152600401610e1c9190612119565b602060405180830381600087803b158015610e3657600080fd5b505af1158015610e4a573d6000803e3d6000fd5b505050506040513d601f19601f82011682018060405250610e6e9190810190611af0565b506001905092915050565b600080600360009054906101000a900473ffffffffffffffffffffffffffffffffffffffff1673ffffffffffffffffffffffffffffffffffffffff166317bfdfbc306040518263ffffffff1660e01b8152600401610ed79190611fbf565b602060405180830381600087803b158015610ef157600080fd5b505af1158015610f05573d6000803e3d6000fd5b505050506040513d601f19601f82011682018060405250610f299190810190611af0565b9050600160009054906101000a900473ffffffffffffffffffffffffffffffffffffffff1673ffffffffffffffffffffffffffffffffffffffff1663095ea7b3600360009054906101000a900473ffffffffffffffffffffffffffffffffffffffff16836040518363ffffffff1660e01b8152600401610faa929190612003565b602060405180830381600087803b158015610fc457600080fd5b505af1158015610fd8573d6000803e3d6000fd5b505050506040513d601f19601f82011682018060405250610ffc9190810190611a75565b50600360009054906101000a900473ffffffffffffffffffffffffffffffffffffffff1673ffffffffffffffffffffffffffffffffffffffff16630e752702826040518263ffffffff1660e01b81526004016110589190612119565b602060405180830381600087803b15801561107257600080fd5b505af1158015611086573d6000803e3d6000fd5b505050506040513d601f19601f820116820180604052506110aa9190810190611af0565b50600360009054906101000a900473ffffffffffffffffffffffffffffffffffffffff1673ffffffffffffffffffffffffffffffffffffffff166370a08231306040518263ffffffff1660e01b81526004016111069190611fbf565b60206040518083038186803b15801561111e57600080fd5b505afa158015611132573d6000803e3d6000fd5b505050506040513d601f19601f820116820180604052506111569190810190611af0565b9050600360009054906101000a900473ffffffffffffffffffffffffffffffffffffffff1673ffffffffffffffffffffffffffffffffffffffff1663db006a75826040518263ffffffff1660e01b81526004016111b39190612119565b602060405180830381600087803b1580156111cd57600080fd5b505af11580156111e1573d6000803e3d6000fd5b505050506040513d601f19601f820116820180604052506112059190810190611af0565b50600191505090565b60008083905060008173ffffffffffffffffffffffffffffffffffffffff1663295c39a56040518163ffffffff1660e01b815260040160206040518083038186803b15801561125c57600080fd5b505afa158015611270573d6000803e3d6000fd5b505050506040513d601f19601f820116820180604052506112949190810190611af0565b9050600080600090505b8281101561137e578373ffffffffffffffffffffffffffffffffffffffff1663062bd3e9826040518263ffffffff1660e01b81526004016112df9190612119565b60206040518083038186803b1580156112f757600080fd5b505afa15801561130b573d6000803e3d6000fd5b505050506040513d601f19601f8201168201806040525061132f91908101906119e5565b91508573ffffffffffffffffffffffffffffffffffffffff168273ffffffffffffffffffffffffffffffffffffffff16141561137157809450505050506113ba565b808060010191505061129e565b506040517f08c379a00000000000000000000000000000000000000000000000000000000081526004016113b1906120de565b60405180910390fd5b92915050565b60006113d660028361163290919063ffffffff16565b9050919050565b6113e5611763565b604051806101000160405280600160088111156113fe57fe5b81526020016000815260200160405180608001604052806000151581526020016000600181111561142b57fe5b81526020016000600181111561143d57fe5b8152602001858152508152602001848152602001600081526020013073ffffffffffffffffffffffffffffffffffffffff1681526020016000815260200160405180602001604052806000815250815250905092915050565b61149e611763565b6040518061010001604052806008808111156114b657fe5b8152602001600081526020016040518060800160405280600015158152602001600060018111156114e357fe5b8152602001600060018111156114f557fe5b81526020016000815250815260200160008152602001600081526020013073ffffffffffffffffffffffffffffffffffffffff16815260200160008152602001838152509050919050565b611548611763565b6040518061010001604052806000600881111561156157fe5b81526020016000815260200160405180608001604052806001151581526020016000600181111561158e57fe5b8152602001600060018111156115a057fe5b8152602001858152508152602001848152602001600081526020013073ffffffffffffffffffffffffffffffffffffffff1681526020016000815260200160405180602001604052806000815250815250905092915050565b6116016117cf565b60405180604001604052803073ffffffffffffffffffffffffffffffffffffffff1681526020016001815250905090565b60008082840190508381101561167d576040517f08c379a00000000000000000000000000000000000000000000000000000000081526004016116749061209e565b60405180910390fd5b8091505092915050565b6040518060800160405280600073ffffffffffffffffffffffffffffffffffffffff16815260200160008152602001600081526020016000151581525090565b604051806101000160405280600060088111156116e057fe5b8152602001600081526020016116f46117ff565b81526020016000815260200160008152602001600073ffffffffffffffffffffffffffffffffffffffff16815260200160008152602001606081525090565b6040518060400160405280600073ffffffffffffffffffffffffffffffffffffffff168152602001600081525090565b6040518061010001604052806000600881111561177c57fe5b8152602001600081526020016117906117ff565b81526020016000815260200160008152602001600073ffffffffffffffffffffffffffffffffffffffff16815260200160008152602001606081525090565b6040518060400160405280600073ffffffffffffffffffffffffffffffffffffffff168152602001600081525090565b60405180608001604052806000151581526020016000600181111561182057fe5b81526020016000600181111561183257fe5b8152602001600081525090565b60008135905061184e81612393565b92915050565b60008151905061186381612393565b92915050565b600081519050611878816123aa565b92915050565b600082601f83011261188f57600080fd5b81356118a261189d82612161565b612134565b915080825260208301602083018583830111156118be57600080fd5b6118c9838284612319565b50505092915050565b6000604082840312156118e457600080fd5b6118ee6040612134565b905060006118fe8482850161183f565b600083015250602061191284828501611992565b60208301525092915050565b60006080828403121561193057600080fd5b61193a6080612134565b9050600061194a84828501611854565b600083015250602061195e848285016119a7565b6020830152506040611972848285016119a7565b604083015250606061198684828501611869565b60608301525092915050565b6000813590506119a1816123c1565b92915050565b6000815190506119b6816123c1565b92915050565b6000602082840312156119ce57600080fd5b60006119dc8482850161183f565b91505092915050565b6000602082840312156119f757600080fd5b6000611a0584828501611854565b91505092915050565b600080600060808486031215611a2357600080fd5b6000611a318682870161183f565b9350506020611a42868287016118d2565b925050606084013567ffffffffffffffff811115611a5f57600080fd5b611a6b8682870161187e565b9150509250925092565b600060208284031215611a8757600080fd5b6000611a9584828501611869565b91505092915050565b600060808284031215611ab057600080fd5b6000611abe8482850161191e565b91505092915050565b600060208284031215611ad957600080fd5b6000611ae784828501611992565b91505092915050565b600060208284031215611b0257600080fd5b6000611b10848285016119a7565b91505092915050565b6000611b258383611e15565b905092915050565b6000611b398383611f1d565b60408301905092915050565b611b4e816122ad565b82525050565b611b5d8161222c565b82525050565b611b6c8161222c565b82525050565b6000611b7d826121ad565b611b8781856121e8565b935083602082028501611b998561218d565b8060005b85811015611bd55784840389528151611bb68582611b19565b9450611bc1836121ce565b925060208a01995050600181019050611b9d565b50829750879550505050505092915050565b6000611bf2826121b8565b611bfc81856121f9565b9350611c078361219d565b8060005b83811015611c38578151611c1f8882611b2d565b9750611c2a836121db565b925050600181019050611c0b565b5085935050505092915050565b611c4e8161223e565b82525050565b611c5d8161223e565b82525050565b6000611c6e826121c3565b611c78818561220a565b9350611c88818560208601612328565b611c918161235b565b840191505092915050565b611ca5816122bf565b82525050565b611cb4816122d1565b82525050565b611cc3816122e3565b82525050565b6000611cd660188361221b565b91507f63616c6c6572206973206e6f7420746865206f776e65722100000000000000006000830152602082019050919050565b6000611d16601b8361221b565b91507f536166654d6174683a206164646974696f6e206f766572666c6f7700000000006000830152602082019050919050565b6000611d5660248361221b565b91507f4e6f7420656e6f7567682066756e647320746f2072657061792064596458206c60008301527f6f616e21000000000000000000000000000000000000000000000000000000006020830152604082019050919050565b6000611dbc60248361221b565b91507f4e6f206d61726b6574496420666f756e6420666f722070726f7669646564207460008301527f6f6b656e000000000000000000000000000000000000000000000000000000006020830152604082019050919050565b600061016083016000830151611e2e6000860182611c9c565b506020830151611e416020860182611fa1565b506040830151611e546040860182611ec8565b506060830151611e6760c0860182611fa1565b506080830151611e7a60e0860182611fa1565b5060a0830151611e8e610100860182611b54565b5060c0830151611ea2610120860182611fa1565b5060e0830151848203610140860152611ebb8282611c63565b9150508091505092915050565b608082016000820151611ede6000850182611c45565b506020820151611ef16020850182611cab565b506040820151611f046040850182611cba565b506060820151611f176060850182611fa1565b50505050565b604082016000820151611f336000850182611b54565b506020820151611f466020850182611fa1565b50505050565b608082016000820151611f626000850182611b54565b506020820151611f756020850182611fa1565b506040820151611f886040850182611fa1565b506060820151611f9b6060850182611c45565b50505050565b611faa816122a3565b82525050565b611fb9816122a3565b82525050565b6000602082019050611fd46000830184611b45565b92915050565b6000604082019050611fef6000830185611b45565b611ffc6020830184611fb0565b9392505050565b60006040820190506120186000830185611b63565b6120256020830184611fb0565b9392505050565b600060408201905081810360008301526120468185611be7565b9050818103602083015261205a8184611b72565b90509392505050565b60006020820190506120786000830184611c54565b92915050565b6000602082019050818103600083015261209781611cc9565b9050919050565b600060208201905081810360008301526120b781611d09565b9050919050565b600060208201905081810360008301526120d781611d49565b9050919050565b600060208201905081810360008301526120f781611daf565b9050919050565b60006080820190506121136000830184611f4c565b92915050565b600060208201905061212e6000830184611fb0565b92915050565b6000604051905081810181811067ffffffffffffffff8211171561215757600080fd5b8060405250919050565b600067ffffffffffffffff82111561217857600080fd5b601f19601f8301169050602081019050919050565b6000819050602082019050919050565b6000819050602082019050919050565b600081519050919050565b600081519050919050565b600081519050919050565b6000602082019050919050565b6000602082019050919050565b600082825260208201905092915050565b600082825260208201905092915050565b600082825260208201905092915050565b600082825260208201905092915050565b600061223782612283565b9050919050565b60008115159050919050565b60008190506122588261236c565b919050565b600081905061226b82612379565b919050565b600081905061227e82612386565b919050565b600073ffffffffffffffffffffffffffffffffffffffff82169050919050565b6000819050919050565b60006122b8826122f5565b9050919050565b60006122ca8261224a565b9050919050565b60006122dc8261225d565b9050919050565b60006122ee82612270565b9050919050565b600061230082612307565b9050919050565b600061231282612283565b9050919050565b82818337600083830152505050565b60005b8381101561234657808201518184015260208101905061232b565b83811115612355576000848401525b50505050565b6000601f19601f8301169050919050565b6009811061237657fe5b50565b6002811061238357fe5b50565b6002811061239057fe5b50565b61239c8161222c565b81146123a757600080fd5b50565b6123b38161223e565b81146123be57600080fd5b50565b6123ca816122a3565b81146123d557600080fd5b5056fea365627a7a72315820a218341d142fcb399d209fbfd2b560c6b3d90163cf4a5f22040b727937e1dbc06c6578706572696d656e74616cf564736f6c63430005100040",
  "source": "pragma experimental ABIEncoderV2;\r\npragma solidity ^0.5.0;\r\n\r\nimport \"@studydefi/money-legos/dydx/contracts/DydxFlashloanBase.sol\";\r\nimport \"@studydefi/money-legos/compound/contracts/ICToken.sol\";\r\nimport \"@studydefi/money-legos/dydx/contracts/ICallee.sol\";\r\nimport \"@openzeppelin/contracts/token/ERC20/IERC20.sol\";\r\n\r\n//cuz @studydefi doesn't contain clamComp();\r\ninterface Comptroller {\r\n  function enterMarkets(address[] calldata) external returns (uint256[] memory);\r\n  function claimComp(address holder) external;\r\n}\r\n\r\ncontract LeveragedYieldFarm is ICallee, DydxFlashloanBase {\r\n  // Mainnet Dai\r\n  // https://etherscan.io/address/0x6b175474e89094c44da98b954eedeac495271d0f#readContract\r\n  address daiAddress = 0x6B175474E89094C44Da98b954EedeAC495271d0F;\r\n  IERC20 dai = IERC20(daiAddress);\r\n\r\n  // Mainnet cDai\r\n  // https://etherscan.io/address/0x5d3a536e4d6dbd6114cc1ead35777bab948e3643#readProxyContract\r\n  address cDaiAddress = 0x5d3a536E4D6DbD6114cc1Ead35777bAB948E3643;\r\n  ICToken cDai = ICToken(cDaiAddress);\r\n\r\n  // Mainnet Comptroller\r\n  // https://etherscan.io/address/0x3d9819210a31b4961b30ef54be2aed79b9c9cd3b#readProxyContract\r\n  address comptrollerAddress = 0x3d9819210A31b4961b30EF54bE2aeD79B9c9Cd3B;\r\n  Comptroller comptroller = Comptroller(comptrollerAddress);\r\n\r\n  // COMP ERC-20 token\r\n  // https://etherscan.io/token/0xc00e94cb662c3520282e6f5717214004a7f26888\r\n  IERC20 compToken = IERC20(0xc00e94Cb662C3520282E6f5717214004A7f26888);\r\n\r\n  // Mainnet dYdX SoloMargin contract\r\n  // https://etherscan.io/address/0x1E0447b19BB6EcFdAe1e4AE1694b0C3659614e4e#readProxyContract\r\n  address soloMarginAddress = 0x1E0447b19BB6EcFdAe1e4AE1694b0C3659614e4e;\r\n\r\n  // Contract owner\r\n  address payable owner;\r\n\r\n  struct MyCustomData {\r\n    address token;\r\n    uint256 repayAmount;\r\n    uint256 fullAmount;\r\n    bool isDeposit;\r\n  }\r\n\r\n  event FlashLoan(address indexed _from, bytes32 indexed _id, uint _value);\r\n\r\n  // Modifiers\r\n  modifier onlyOwner() {\r\n    require(msg.sender == owner, \"caller is not the owner!\");\r\n    _;\r\n  }\r\n\r\n  constructor() public {\r\n    // Track the contract owner\r\n    owner = msg.sender;\r\n\r\n    // Enter the cDai market so you can borrow another type of asset\r\n    address[] memory cTokens = new address[](1);\r\n    cTokens[0] = cDaiAddress;\r\n    uint256[] memory errors = comptroller.enterMarkets(cTokens);\r\n    if (errors[0] != 0) {\r\n      revert(\"Comptroller.enterMarkets failed.\");\r\n    }\r\n  }\r\n\r\n  // Don't allow contract to receive Ether by mistake\r\n  function() external payable {\r\n    revert();\r\n  }\r\n\r\n  function flashLoan(address _solo, address _token, uint256 _amount, uint256 _fullAmount, bool _isDeposit) internal {\r\n    ISoloMargin solo = ISoloMargin(_solo);\r\n\r\n    // Get marketId from token address\r\n    uint256 marketId = _getMarketIdFromTokenAddress(_solo, _token);\r\n\r\n    // Calculate repay amount (_amount + (2 wei))\r\n    // Approve transfer from\r\n    uint256 repayAmount = _getRepaymentAmountInternal(_amount);\r\n    IERC20(_token).approve(_solo, repayAmount);\r\n\r\n    // 1. Withdraw $\r\n    // 2. Call callFunction(...)\r\n    // 3. Deposit back $\r\n    Actions.ActionArgs[] memory operations = new Actions.ActionArgs[](3);\r\n\r\n    operations[0] = _getWithdrawAction(marketId, _amount);\r\n    operations[1] = _getCallAction(\r\n      // Encode MyCustomData for callFunction\r\n      abi.encode(MyCustomData({\r\n        token: _token,\r\n        repayAmount: repayAmount,\r\n        fullAmount: _fullAmount,\r\n        isDeposit: _isDeposit}\r\n      ))\r\n    );\r\n    operations[2] = _getDepositAction(marketId, repayAmount);\r\n\r\n    Account.Info[] memory accountInfos = new Account.Info[](1);\r\n    accountInfos[0] = _getAccountInfo();\r\n\r\n    solo.operate(accountInfos, operations);\r\n  }\r\n\r\n  // Do not deposit all your DAI because you must pay flash loan fees\r\n  // Always keep at least 1 DAI in the contract\r\n  function depositDai(uint256 initialAmount) external onlyOwner returns (bool) {\r\n    // Total deposit: 30% initial amount, 70% flash loan\r\n    uint256 totalAmount = (initialAmount * 10) / 3;\r\n\r\n    // loan is 70% of total deposit\r\n    uint256 flashLoanAmount = totalAmount - initialAmount;\r\n\r\n    // Get DAI Flash Loan for \"DEPOSIT\"\r\n    bool isDeposit = true;\r\n    flashLoan(soloMarginAddress, daiAddress, flashLoanAmount, totalAmount, isDeposit); // execution goes to `callFunction`\r\n\r\n    // Handle remaining execution inside handleDeposit() function\r\n\r\n    return true;\r\n  }\r\n\r\n  // You must have some Dai in your contract still to pay flash loan fee!\r\n  // Always keep at least 1 DAI in the contract\r\n  function withdrawDai(uint256 initialAmount) external onlyOwner returns (bool) {\r\n    // Total deposit: 30% initial amount, 70% flash loan\r\n    uint256 totalAmount = (initialAmount * 10) / 3;\r\n\r\n    // loan is 70% of total deposit\r\n    uint256 flashLoanAmount = totalAmount - initialAmount;\r\n\r\n    // Use flash loan to payback borrowed amount\r\n    bool isDeposit = false; //false means withdraw\r\n    flashLoan(soloMarginAddress, daiAddress, flashLoanAmount, totalAmount, isDeposit); // execution goes to `callFunction`\r\n\r\n    // Handle repayment inside handleWithdraw() function\r\n\r\n    // Claim COMP tokens\r\n    comptroller.claimComp(address(this));\r\n\r\n    // Withdraw COMP tokens\r\n    compToken.transfer(owner, compToken.balanceOf(address(this)));\r\n\r\n    // Withdraw Dai to the wallet\r\n    dai.transfer(owner, dai.balanceOf(address(this)));\r\n\r\n    return true;\r\n  }\r\n\r\n  // This is the function that will be called postLoan\r\n  // i.e. Encode the logic to handle your flashloaned funds here\r\n  function callFunction(address sender, Account.Info memory account, bytes memory data) public {\r\n    MyCustomData memory mcd = abi.decode(data, (MyCustomData));\r\n    uint256 balOfLoanedToken = IERC20(mcd.token).balanceOf(address(this));\r\n\r\n    // Note that you can ignore the line below\r\n    // if your dydx account (this contract in this case)\r\n    // has deposited at least ~2 Wei of assets into the account\r\n    // to balance out the collaterization ratio\r\n    require(\r\n      balOfLoanedToken >= mcd.repayAmount,\r\n      \"Not enough funds to repay dYdX loan!\"\r\n    );\r\n\r\n    if(mcd.isDeposit == true) {\r\n      handleDeposit(mcd.fullAmount, mcd.repayAmount);\r\n    }\r\n\r\n    if(mcd.isDeposit == false) {\r\n      handleWithdraw();\r\n    }\r\n  }\r\n\r\n  // You must first send DAI to this contract before you can call this function\r\n  function handleDeposit(uint256 totalAmount, uint256 flashLoanAmount) internal returns (bool) {\r\n    // Approve Dai tokens as collateral\r\n    dai.approve(cDaiAddress, totalAmount);\r\n\r\n    // Provide collateral by minting cDai tokens\r\n    cDai.mint(totalAmount);\r\n\r\n    // Borrow Dai\r\n    cDai.borrow(flashLoanAmount);\r\n\r\n    // Start earning COMP tokens, yay!\r\n    return true;\r\n  }\r\n\r\n  function handleWithdraw() internal returns (bool) {\r\n    uint256 balance;\r\n\r\n    // Get curent borrow Balance\r\n    balance = cDai.borrowBalanceCurrent(address(this));\r\n\r\n    // Approve tokens for repayment\r\n    dai.approve(address(cDai), balance);\r\n\r\n    // Repay tokens\r\n    cDai.repayBorrow(balance);\r\n\r\n    // Get cDai balance\r\n    balance = cDai.balanceOf(address(this));\r\n\r\n    // Redeem cDai\r\n    cDai.redeem(balance);\r\n\r\n    return true;\r\n  }\r\n\r\n  // Fallback in case any other tokens are sent to this contract\r\n  function withdrawToken(address _tokenAddress) public onlyOwner {\r\n    uint256 balance = IERC20(_tokenAddress).balanceOf(address(this));\r\n    IERC20(_tokenAddress).transfer(owner, balance);\r\n  }\r\n}",
  "sourcePath": "/Users/zed/Desktop/DAPP_UNIVERSITY/FLASHLOAN_MASTERCLASS/Flashloan_Masterclass_2_Replays/FlashloanLeveragedYieldFarm/src/contracts/LeveragedYieldFarm.sol",
  "compiler": {
    "name": "solc",
    "version": "0.5.16+commit.9c3226ce.Emscripten.clang"
  },
  "schemaVersion": "3.4.1",
  "updatedAt": "2021-08-18T11:41:21.033Z",
  "devdoc": {
    "methods": {}
  },
  "userdoc": {
    "methods": {}
  }
}