{
  "contractName": "NFT",
  "abi": [
    {
      "inputs": [
        {
          "internalType": "address",
          "name": "_token",
          "type": "address"
        }
      ],
      "stateMutability": "nonpayable",
      "type": "constructor"
    },
    {
      "anonymous": false,
      "inputs": [
        {
          "indexed": true,
          "internalType": "address",
          "name": "owner",
          "type": "address"
        },
        {
          "indexed": true,
          "internalType": "address",
          "name": "approved",
          "type": "address"
        },
        {
          "indexed": true,
          "internalType": "uint256",
          "name": "tokenId",
          "type": "uint256"
        }
      ],
      "name": "Approval",
      "type": "event"
    },
    {
      "anonymous": false,
      "inputs": [
        {
          "indexed": true,
          "internalType": "address",
          "name": "owner",
          "type": "address"
        },
        {
          "indexed": true,
          "internalType": "address",
          "name": "operator",
          "type": "address"
        },
        {
          "indexed": false,
          "internalType": "bool",
          "name": "approved",
          "type": "bool"
        }
      ],
      "name": "ApprovalForAll",
      "type": "event"
    },
    {
      "anonymous": false,
      "inputs": [
        {
          "indexed": true,
          "internalType": "address",
          "name": "previousOwner",
          "type": "address"
        },
        {
          "indexed": true,
          "internalType": "address",
          "name": "newOwner",
          "type": "address"
        }
      ],
      "name": "OwnershipTransferred",
      "type": "event"
    },
    {
      "anonymous": false,
      "inputs": [
        {
          "indexed": false,
          "internalType": "address",
          "name": "owner",
          "type": "address"
        },
        {
          "indexed": false,
          "internalType": "uint256",
          "name": "price",
          "type": "uint256"
        },
        {
          "indexed": false,
          "internalType": "uint256",
          "name": "id",
          "type": "uint256"
        },
        {
          "indexed": false,
          "internalType": "string",
          "name": "uri",
          "type": "string"
        }
      ],
      "name": "Purchase",
      "type": "event"
    },
    {
      "anonymous": false,
      "inputs": [
        {
          "indexed": true,
          "internalType": "address",
          "name": "from",
          "type": "address"
        },
        {
          "indexed": true,
          "internalType": "address",
          "name": "to",
          "type": "address"
        },
        {
          "indexed": true,
          "internalType": "uint256",
          "name": "tokenId",
          "type": "uint256"
        }
      ],
      "name": "Transfer",
      "type": "event"
    },
    {
      "inputs": [],
      "name": "_owner",
      "outputs": [
        {
          "internalType": "address",
          "name": "",
          "type": "address"
        }
      ],
      "stateMutability": "view",
      "type": "function",
      "constant": true
    },
    {
      "inputs": [
        {
          "internalType": "address",
          "name": "to",
          "type": "address"
        },
        {
          "internalType": "uint256",
          "name": "tokenId",
          "type": "uint256"
        }
      ],
      "name": "approve",
      "outputs": [],
      "stateMutability": "nonpayable",
      "type": "function"
    },
    {
      "inputs": [
        {
          "internalType": "address",
          "name": "owner",
          "type": "address"
        }
      ],
      "name": "balanceOf",
      "outputs": [
        {
          "internalType": "uint256",
          "name": "",
          "type": "uint256"
        }
      ],
      "stateMutability": "view",
      "type": "function",
      "constant": true
    },
    {
      "inputs": [],
      "name": "baseURI",
      "outputs": [
        {
          "internalType": "string",
          "name": "",
          "type": "string"
        }
      ],
      "stateMutability": "view",
      "type": "function",
      "constant": true
    },
    {
      "inputs": [
        {
          "internalType": "uint256",
          "name": "tokenId",
          "type": "uint256"
        }
      ],
      "name": "getApproved",
      "outputs": [
        {
          "internalType": "address",
          "name": "",
          "type": "address"
        }
      ],
      "stateMutability": "view",
      "type": "function",
      "constant": true
    },
    {
      "inputs": [
        {
          "internalType": "address",
          "name": "owner",
          "type": "address"
        },
        {
          "internalType": "address",
          "name": "operator",
          "type": "address"
        }
      ],
      "name": "isApprovedForAll",
      "outputs": [
        {
          "internalType": "bool",
          "name": "",
          "type": "bool"
        }
      ],
      "stateMutability": "view",
      "type": "function",
      "constant": true
    },
    {
      "inputs": [],
      "name": "name",
      "outputs": [
        {
          "internalType": "string",
          "name": "",
          "type": "string"
        }
      ],
      "stateMutability": "view",
      "type": "function",
      "constant": true
    },
    {
      "inputs": [],
      "name": "owner",
      "outputs": [
        {
          "internalType": "address",
          "name": "",
          "type": "address"
        }
      ],
      "stateMutability": "view",
      "type": "function",
      "constant": true
    },
    {
      "inputs": [
        {
          "internalType": "uint256",
          "name": "tokenId",
          "type": "uint256"
        }
      ],
      "name": "ownerOf",
      "outputs": [
        {
          "internalType": "address",
          "name": "",
          "type": "address"
        }
      ],
      "stateMutability": "view",
      "type": "function",
      "constant": true
    },
    {
      "inputs": [
        {
          "internalType": "uint256",
          "name": "",
          "type": "uint256"
        }
      ],
      "name": "price",
      "outputs": [
        {
          "internalType": "uint256",
          "name": "",
          "type": "uint256"
        }
      ],
      "stateMutability": "view",
      "type": "function",
      "constant": true
    },
    {
      "inputs": [],
      "name": "renounceOwnership",
      "outputs": [],
      "stateMutability": "nonpayable",
      "type": "function"
    },
    {
      "inputs": [
        {
          "internalType": "address",
          "name": "from",
          "type": "address"
        },
        {
          "internalType": "address",
          "name": "to",
          "type": "address"
        },
        {
          "internalType": "uint256",
          "name": "tokenId",
          "type": "uint256"
        }
      ],
      "name": "safeTransferFrom",
      "outputs": [],
      "stateMutability": "nonpayable",
      "type": "function"
    },
    {
      "inputs": [
        {
          "internalType": "address",
          "name": "from",
          "type": "address"
        },
        {
          "internalType": "address",
          "name": "to",
          "type": "address"
        },
        {
          "internalType": "uint256",
          "name": "tokenId",
          "type": "uint256"
        },
        {
          "internalType": "bytes",
          "name": "_data",
          "type": "bytes"
        }
      ],
      "name": "safeTransferFrom",
      "outputs": [],
      "stateMutability": "nonpayable",
      "type": "function"
    },
    {
      "inputs": [
        {
          "internalType": "address",
          "name": "operator",
          "type": "address"
        },
        {
          "internalType": "bool",
          "name": "approved",
          "type": "bool"
        }
      ],
      "name": "setApprovalForAll",
      "outputs": [],
      "stateMutability": "nonpayable",
      "type": "function"
    },
    {
      "inputs": [
        {
          "internalType": "uint256",
          "name": "",
          "type": "uint256"
        }
      ],
      "name": "sold",
      "outputs": [
        {
          "internalType": "bool",
          "name": "",
          "type": "bool"
        }
      ],
      "stateMutability": "view",
      "type": "function",
      "constant": true
    },
    {
      "inputs": [
        {
          "internalType": "bytes4",
          "name": "interfaceId",
          "type": "bytes4"
        }
      ],
      "name": "supportsInterface",
      "outputs": [
        {
          "internalType": "bool",
          "name": "",
          "type": "bool"
        }
      ],
      "stateMutability": "view",
      "type": "function",
      "constant": true
    },
    {
      "inputs": [],
      "name": "symbol",
      "outputs": [
        {
          "internalType": "string",
          "name": "",
          "type": "string"
        }
      ],
      "stateMutability": "view",
      "type": "function",
      "constant": true
    },
    {
      "inputs": [],
      "name": "token",
      "outputs": [
        {
          "internalType": "contract Token",
          "name": "",
          "type": "address"
        }
      ],
      "stateMutability": "view",
      "type": "function",
      "constant": true
    },
    {
      "inputs": [
        {
          "internalType": "uint256",
          "name": "index",
          "type": "uint256"
        }
      ],
      "name": "tokenByIndex",
      "outputs": [
        {
          "internalType": "uint256",
          "name": "",
          "type": "uint256"
        }
      ],
      "stateMutability": "view",
      "type": "function",
      "constant": true
    },
    {
      "inputs": [
        {
          "internalType": "address",
          "name": "owner",
          "type": "address"
        },
        {
          "internalType": "uint256",
          "name": "index",
          "type": "uint256"
        }
      ],
      "name": "tokenOfOwnerByIndex",
      "outputs": [
        {
          "internalType": "uint256",
          "name": "",
          "type": "uint256"
        }
      ],
      "stateMutability": "view",
      "type": "function",
      "constant": true
    },
    {
      "inputs": [
        {
          "internalType": "uint256",
          "name": "tokenId",
          "type": "uint256"
        }
      ],
      "name": "tokenURI",
      "outputs": [
        {
          "internalType": "string",
          "name": "",
          "type": "string"
        }
      ],
      "stateMutability": "view",
      "type": "function",
      "constant": true
    },
    {
      "inputs": [],
      "name": "totalSupply",
      "outputs": [
        {
          "internalType": "uint256",
          "name": "",
          "type": "uint256"
        }
      ],
      "stateMutability": "view",
      "type": "function",
      "constant": true
    },
    {
      "inputs": [
        {
          "internalType": "address",
          "name": "from",
          "type": "address"
        },
        {
          "internalType": "address",
          "name": "to",
          "type": "address"
        },
        {
          "internalType": "uint256",
          "name": "tokenId",
          "type": "uint256"
        }
      ],
      "name": "transferFrom",
      "outputs": [],
      "stateMutability": "nonpayable",
      "type": "function"
    },
    {
      "inputs": [
        {
          "internalType": "address",
          "name": "newOwner",
          "type": "address"
        }
      ],
      "name": "transferOwnership",
      "outputs": [],
      "stateMutability": "nonpayable",
      "type": "function"
    },
    {
      "inputs": [
        {
          "internalType": "string",
          "name": "_tokenURI",
          "type": "string"
        },
        {
          "internalType": "uint256",
          "name": "_price",
          "type": "uint256"
        }
      ],
      "name": "mint",
      "outputs": [
        {
          "internalType": "bool",
          "name": "",
          "type": "bool"
        }
      ],
      "stateMutability": "nonpayable",
      "type": "function"
    },
    {
      "inputs": [
        {
          "internalType": "uint256",
          "name": "_id",
          "type": "uint256"
        },
        {
          "internalType": "uint256",
          "name": "_amount",
          "type": "uint256"
        }
      ],
      "name": "buy",
      "outputs": [],
      "stateMutability": "nonpayable",
      "type": "function"
    }
  ],
  "bytecode": "0x60806040523480156200001c5760008062000019620002d2565b50505b5060405162002dda38038062002dda833981810160405260208110156200004d576000806200004a620002d2565b50505b810190808051925060409150505160408082018152600f82526e4461707020556e697665727369747960881b602083015251604080820190526005815264444150505560d81b6020820152620000aa6301ffc9a760e01b62000210565b6006828051620000bf9291602001906200033f565b506007818051620000d59291602001906200033f565b50620000e86380ac58cd60e01b62000210565b620000fa635b5e139f60e01b62000210565b6200010c63780e9d6360e01b62000210565b50600090506200011b620002c0565b905080600a6001816200012d62000401565b816001600160a01b0302191690836001600160a01b03160217906200015162000463565b5050506001600160a01b03811660007f8be0079c531659141344cd1fd0a4f28419497f9722a3daafe3b4186f6b6457e060405160405180910390a3505a62000198620004b2565b600b600181620001a762000401565b816001600160a01b0302191690836001600160a01b0316021790620001cb62000463565b50505080600e60006101000a81620001e262000401565b816001600160a01b0302191690836001600160a01b03160217906200020662000463565b505050506200051c565b6001600160e01b031980821614156200027a5760405162461bcd60e51b815260206004820152601c60248201527f4552433136353a20696e76616c696420696e746572666163652069640000000060448201526064016040518091039062000277620002d2565b50505b6001600160e01b031981166000908152602081905260019060409020600181620002a362000401565b8160ff02191690831515021790620002ba62000463565b50505050565b60005a620002cd620004b2565b905090565b632a2a7adb598160e01b8152600481016020815285602082015260005b868110156200030c578086015182820160400152602001620002ef565b506020828760640184336000905af158600e01573d6000803e3d6000fd5b3d6001141558600a015760016000f35b505050565b82806200034b62000401565b600181600116156101000203166002900490600052602060002090601f0160209004810192826200038b576000856200038362000463565b5050620003ef565b82601f10620003a957805160ff191683800117856200038362000463565b82800160010185620003ba62000463565b50508215620003ef579182015b82811115620003ef57825182620003dd62000463565b505091602001919060010190620003c7565b50620003fd929150620004f9565b5090565b6303daa959598160e01b8152836004820152602081602483336000905af158600e01573d6000803e3d6000fd5b3d6001141558600a015760016000f35b8051935060005b60408110156200045e5760008282015260200162000445565b505050565b6322bd64c0598160e01b8152836004820152846024820152600081604483336000905af158600e01573d6000803e3d6000fd5b3d6001141558600a015760016000f35b60008152602062000445565b6373509064598160e01b8152602081600483336000905af158600e01573d6000803e3d6000fd5b3d6001141558600a015760016000f35b8051600082529350602062000445565b80821115620003fd57600080826200051062000463565b505050600101620004f9565b6128ae806200052c6000396000f3fe6080604052348015610019576000806100166122a6565b50505b50600436106101475760003560e01c806301ffc9a714610155578063056b01ce1461019957806306fdde0314610262578063081812fc146102e1578063095ea7b31461032357806318160ddd1461035a57806323b872dd1461037457806326a49e37146103b35780632f745c59146103d957806342842e0e1461040e5780634f6ccce71461044d5780636352211e146104735780636c0360eb1461049957806370a08231146104a1578063715018a6146104d05780638da5cb5b146104d857806395d89b41146104e05780639c03facb146104e8578063a22cb4651461050e578063b2bdfa7b14610545578063b88d4fde1461054d578063c87b56dd14610634578063d6febde81461065a578063e985e9c514610686578063f2fde38b146106bd578063fc0c546a146106ec575b6000806101526122a6565b50505b61018560048036036020811015610174576000806101716122a6565b50505b50356001600160e01b0319166106f4565b604051901515815260200160405180910390f35b610185600480360360408110156101b8576000806101b56122a6565b50505b810190602081018135600160201b8111156101db576000806101d86122a6565b50505b8201836020820111156101f6576000806101f36122a6565b50505b803590602001918460018302840111600160201b831117156102205760008061021d6122a6565b50505b91908080601f0160208091040260200160405190810160405281815292919060208401838380828437600092019190915250929550509135925061072a915050565b61026a61083b565b60405160208082528190810183818151815260200191508051906020019080838360005b838110156102a657808201518382015260200161028e565b50505050905090810190601f1680156102d35780820380516001836020036101000a031916815260200191505b509250505060405180910390f35b61030760048036036020811015610300576000806102fd6122a6565b50505b50356108f8565b6040516001600160a01b03909116815260200160405180910390f35b610358600480360360408110156103425760008061033f6122a6565b50505b506001600160a01b038135169060200135610977565b005b610362610a64565b60405190815260200160405180910390f35b61035860048036036060811015610393576000806103906122a6565b50505b506001600160a01b03813581169160208101359091169060400135610a75565b610362600480360360208110156103d2576000806103cf6122a6565b50505b5035610ad5565b610362600480360360408110156103f8576000806103f56122a6565b50505b506001600160a01b038135169060200135610af0565b6103586004803603606081101561042d5760008061042a6122a6565b50505b506001600160a01b03813581169160208101359091169060400135610b19565b6103626004803603602081101561046c576000806104696122a6565b50505b5035610b32565b610307600480360360208110156104925760008061048f6122a6565b50505b5035610b48565b61026a610b6e565b610362600480360360208110156104c0576000806104bd6122a6565b50505b50356001600160a01b0316610c14565b610358610c85565b610307610d60565b61026a610d82565b61018560048036036020811015610507576000806105046122a6565b50505b5035610e28565b6103586004803603604081101561052d5760008061052a6122a6565b50505b506001600160a01b0381351690602001351515610e4f565b610307610f7e565b6103586004803603608081101561056c576000806105696122a6565b50505b6001600160a01b03823581169260208101359091169160408201359190810190608081016060820135600160201b8111156105af576000806105ac6122a6565b50505b8201836020820111156105ca576000806105c76122a6565b50505b803590602001918460018302840111600160201b831117156105f4576000806105f16122a6565b50505b91908080601f0160208091040260200160405190810160405281815292919060208401838380828437600092019190915250929550610f9d945050505050565b61026a60048036036020811015610653576000806106506122a6565b50505b5035611004565b61035860048036036040811015610679576000806106766122a6565b50505b50803590602001356112bd565b610185600480360360408110156106a5576000806106a26122a6565b50505b506001600160a01b03813581169160200135166113b4565b610358600480360360208110156106dc576000806106d96122a6565b50505b50356001600160a01b0316611402565b610307611533565b6001600160e01b031981166000908152602081905260408120600090610718612311565b906101000a900460ff1690505b919050565b600061073461153f565b6001600160a01b0316610745610d60565b6001600160a01b0316146107965760405162461bcd60e51b815260206004820181905260248201526000805160206127a48339815191526044820152606401604051809103906107936122a6565b50505b60006107a0610a64565b6001016000818152600d60205290915083906040902081906107c061236c565b5050506108255a63996d79a5598160e01b8152602081600483336000905af158600e01573d6000803e3d6000fd5b3d6001141558600a015760016000f35b8051925060005b604081101561081c57600082820152602001610805565b5050508261154a565b61082f8185611678565b60019150505b92915050565b6060600680610848612311565b600181600116156101000203166002900480601f016020809104026020016040519081016040528181529190602083018280610882612311565b600181600116156101000203166002900480156108ee5780601f106108bc5761010080836108ae612311565b0402835291602001916108ee565b820191906000526020600020905b816108d3612311565b815290600101906020018083116108ca57829003601f168201915b5050505050905090565b6000610903826116e6565b6109475760405162461bcd60e51b815260040180806020018281038252602c81526020018061274c602c9139604001915050604051809103906109446122a6565b50505b6000828152600460205260409020600090610960612311565b906101000a90046001600160a01b03169050919050565b600061098282610b48565b9050806001600160a01b0316836001600160a01b031614156109de5760405162461bcd60e51b815260040180806020018281038252602181526020018061285c60219139604001915050604051809103906109db6122a6565b50505b806001600160a01b03166109f061153f565b6001600160a01b03161480610a115750610a1181610a0c61153f565b6113b4565b610a555760405162461bcd60e51b815260040180806020018281038252603881526020018061269f6038913960400191505060405180910390610a526122a6565b50505b610a5f83836116f3565b505050565b6000610a706002611780565b905090565b610a86610a8061153f565b8261178b565b610aca5760405162461bcd60e51b815260040180806020018281038252603181526020018061287d6031913960400191505060405180910390610ac76122a6565b50505b610a5f838383611838565b600d6020528060005260406000209050610aed612311565b81565b6001600160a01b03821660009081526001602052610b12826040832090611988565b9392505050565b610a5f8383836040516020810160405260008152610f9d565b600080610b40600284611994565b509392505050565b6000610835826040516060810160405260298082526127016020830139600291906119b0565b6060600980610b7b612311565b600181600116156101000203166002900480601f016020809104026020016040519081016040528181529190602083018280610bb5612311565b600181600116156101000203166002900480156108ee5780601f10610be15761010080836108ae612311565b820191906000526020600020905b81610bf8612311565b81529060010190602001808311610bef57509395945050505050565b60006001600160a01b038216610c645760405162461bcd60e51b815260040180806020018281038252602a8152602001806126d7602a913960400191505060405180910390610c616122a6565b50505b6001600160a01b038216600090815260016020526108359060409020611780565b610c8d61153f565b6001600160a01b0316610c9e610d60565b6001600160a01b031614610cef5760405162461bcd60e51b815260206004820181905260248201526000805160206127a4833981519152604482015260640160405180910390610cec6122a6565b50505b600080600a610cfc612311565b906101000a90046001600160a01b03166001600160a01b03166000805160206127c483398151915260405160405180910390a36000600a600181610d3e612311565b816001600160a01b0302191690836001600160a01b0316021790610a5f61236c565b600080600a610d6d612311565b906101000a90046001600160a01b0316905090565b6060600780610d8f612311565b600181600116156101000203166002900480601f016020809104026020016040519081016040528181529190602083018280610dc9612311565b600181600116156101000203166002900480156108ee5780601f10610df55761010080836108ae612311565b820191906000526020600020905b81610e0c612311565b81529060010190602001808311610e0357509395945050505050565b600c60205280600052604060002060009150610e42612311565b906101000a900460ff1681565b610e5761153f565b6001600160a01b0316826001600160a01b03161415610ec15760405162461bcd60e51b815260206004820152601960248201527822a9219b99189d1030b8383937bb32903a379031b0b63632b960391b604482015260640160405180910390610ebe6122a6565b50505b8060056000610ece61153f565b6001600160a01b03166001600160a01b031681526020019081526020016000206001600160a01b038416600090815260209190915260409020600181610f12612311565b8160ff02191690831515021790610f2761236c565b505050816001600160a01b0316610f3c61153f565b6001600160a01b03167f17307eab39ab6107e8899845ad3d59bd9653f200f220920489ca2b5937696c3183604051901515815260200160405180910390a35050565b6000600b610f8a612311565b906101000a90046001600160a01b031681565b610fae610fa861153f565b8361178b565b610ff25760405162461bcd60e51b815260040180806020018281038252603181526020018061287d6031913960400191505060405180910390610fef6122a6565b50505b610ffe848484846119bd565b50505050565b606061100f826116e6565b6110535760405162461bcd60e51b815260040180806020018281038252602f81526020018061280d602f9139604001915050604051809103906110506122a6565b50505b60008281526008602052604081208061106a612311565b600181600116156101000203166002900480601f0160208091040260200160405190810160405281815291906020830182806110a4612311565b600181600116156101000203166002900480156111105780601f106110de5761010080836110d0612311565b040283529160200191611110565b820191906000526020600020905b816110f5612311565b815290600101906020018083116110ec57829003601f168201915b505050505090506000611121610b6e565b9050805161113157509050610725565b6000825111156111f85780826040516020018083805190602001908083835b6020831061116f5780518252601f199092019160209182019101611150565b6001836020036101000a038019825116818451161790925250505091909101905082805190602001908083835b602083106111bb5780518252601f19909201916020918201910161119c565b6001836020036101000a03801982511681845116179092525050509190910193506040925050505160208183030381529060405292505050610725565b80611202856119c8565b6040516020018083805190602001908083835b602083106112345780518252601f199092019160209182019101611215565b6001836020036101000a038019825116818451161790925250505091909101905082805190602001908083835b602083106112805780518252601f199092019160209182019101611261565b6001836020036101000a03801982511681845116179092525050509190910193506040925050505160208183030381529060405292505050919050565b6112c78282611aac565b6112d18282611be7565b7f6d5507734d4d9e8592119c9e6b3e2bf7eab8bd6252f36e2fa05a5588442479da5a6112fb6123ba565b6000848152600d60205260409020611311612311565b8461131b86611004565b60405180856001600160a01b0316815260200184815260200183815260200180602001828103825283818151815260200191508051906020019080838360005b8381101561137357808201518382015260200161135b565b50505050905090810190601f1680156113a05780820380516001836020036101000a031916815260200191505b509550505050505060405180910390a15050565b6001600160a01b03821660009081526005602052604081206001600160a01b0383166000908152602091909152604090206000906113f0612311565b906101000a900460ff16905092915050565b61140a61153f565b6001600160a01b031661141b610d60565b6001600160a01b03161461146c5760405162461bcd60e51b815260206004820181905260248201526000805160206127a48339815191526044820152606401604051809103906114696122a6565b50505b6001600160a01b0381166114ba5760405162461bcd60e51b815260040180806020018281038252602681526020018061262960269139604001915050604051809103906114b76122a6565b50505b6001600160a01b0381166000600a6114d0612311565b906101000a90046001600160a01b03166001600160a01b03166000805160206127c483398151915260405160405180910390a380600a600181611511612311565b816001600160a01b0302191690836001600160a01b0316021790610ffe61236c565b6000600e610f8a612311565b60005a610a706123ba565b6001600160a01b0382166115ad5760405162461bcd60e51b815260206004820181905260248201527f4552433732313a206d696e7420746f20746865207a65726f20616464726573736044820152606401604051809103906115aa6122a6565b50505b6115b6816116e6565b1561160f5760405162461bcd60e51b815260206004820152601c60248201527b115490cdcc8c4e881d1bdad95b88185b1c9958591e481b5a5b9d195960221b60448201526064016040518091039061160c6122a6565b50505b61161b60008383610a5f565b6001600160a01b0382166000908152600160205261163f9082906040902090611da2565b5061164c60028284611dae565b50806001600160a01b038316600060008051602061283c83398151915260405160405180910390a45050565b611681826116e6565b6116c55760405162461bcd60e51b815260040180806020018281038252602c815260200180612778602c9139604001915050604051809103906116c26122a6565b50505b60008281526008602052819060409020908051610a5f929160200190612400565b6000610835600283611dc4565b6000818152600460205282906040902060018161170e612311565b816001600160a01b0302191690836001600160a01b031602179061173061236c565b50505080826001600160a01b031661174783610b48565b6001600160a01b03167f8c5be1e5ebec7d5bd14f71427d1e84f3dd0314c0f7b2291e5b200ac8c7c3b92560405160405180910390a45050565b600061083582611dd0565b6000611796826116e6565b6117da5760405162461bcd60e51b815260040180806020018281038252602c815260200180612673602c9139604001915050604051809103906117d76122a6565b50505b60006117e583610b48565b9050806001600160a01b0316846001600160a01b031614806118205750836001600160a01b0316611815846108f8565b6001600160a01b0316145b80611830575061183081856113b4565b949350505050565b826001600160a01b031661184b82610b48565b6001600160a01b0316146118995760405162461bcd60e51b81526004018080602001828103825260298152602001806127e460299139604001915050604051809103906118966122a6565b50505b6001600160a01b0382166118e75760405162461bcd60e51b815260040180806020018281038252602481526020018061264f60249139604001915050604051809103906118e46122a6565b50505b6118f2838383610a5f565b6118fd6000826116f3565b6001600160a01b038316600090815260016020526119219082906040902090611ddc565b506001600160a01b038216600090815260016020526119469082906040902090611da2565b5061195360028284611dae565b5080826001600160a01b0316846001600160a01b031660008051602061283c83398151915260405160405180910390a4505050565b6000610b128383611de8565b60008080806119a38686611e61565b9097909650945050505050565b6000611830848484611efd565b610ffe848484611838565b6060816119ee576040516040808201905260018152600360fc1b60208201529050610725565b8160005b8115611a0657600101600a820491506119f2565b6000816001600160401b0381118015611a2757600080611a246122a6565b50505b50604051818152601f19601f8301168101602001604052908015611a52576020820181803683370190505b50859350905060001982015b8315611aa3576000198101906030600a86060160f81b90839081518110611a8157fe5b60200101906001600160f81b031916908160001a905350600a84049350611a5e565b50949350505050565b611ab5826116e6565b611b065760405162461bcd60e51b8152602060048201526015602482015274115c9c9bdc8b081ddc9bdb99c8151bdad95b881a59605a1b604482015260640160405180910390611b036122a6565b50505b6000828152600c60205260409020600090611b1f612311565b906101000a900460ff1615611b7a5760405162461bcd60e51b8152602060048201526014602482015273115c9c9bdc8b08151bdad95b881a5cc81cdbdb1960621b604482015260640160405180910390611b776122a6565b50505b6000828152600d60205260409020611b90612311565b811015611be35760405162461bcd60e51b81526020600482015260176024820152764572726f722c20546f6b656e20636f737473206d6f726560481b604482015260640160405180910390610ffe6122a6565b5050565b611c525a63996d79a5598160e01b8152602081600483336000905af158600e01573d6000803e3d6000fd5b3d6001141558600a015760016000f35b8051925060005b6040811015611c4057600082820152602001611c29565b5050505a611c4c6123ba565b84611838565b6000600e611c5e612311565b906101000a90046001600160a01b03166001600160a01b03166323b872dd5a611c856123ba565b6000600b611c91612311565b906101000a90046001600160a01b0316846040516001600160e01b031960e086901b1681526001600160a01b039384166004820152919092166024820152604481019190915260640160206040518083038160008780611cef6124b0565b158015611d0457600080611d016122a6565b50505b505a611d0e6124fc565b505050505050158015611d2e573d6000803e3d6000611d2b6122a6565b50505b505050506040513d6020811015611d4d57600080611d4a6122a6565b50505b8101908080519250611d6a91505057600080611d676122a6565b50505b6000828152600c60205260019060409020600181611d86612311565b8160ff02191690831515021790611d9b61236c565b5050505050565b6000610b128383611fe5565b600061183084846001600160a01b038516612066565b6000610b128383612164565b60008180610b12612311565b6000610b128383612185565b6000818380611df5612311565b905011611e3c5760405162461bcd60e51b81526004018080602001828103825260228152602001806126076022913960400191505060405180910390611e396122a6565b50505b828281611e47612311565b8110611e4f57fe5b90600052602060002001610b12612311565b600080828480611e6f612311565b905011611eb65760405162461bcd60e51b815260040180806020018281038252602281526020018061272a6022913960400191505060405180910390611eb36122a6565b50505b6000848481611ec3612311565b8110611ecb57fe5b906000526020600020600290910201905080611ee5612311565b81600101611ef1612311565b92509250509250929050565b6000828152600184016020528060408120611f16612311565b90508281611fab5760405162461bcd60e51b81526004018080602001828103825283818151815260200191508051906020019080838360005b83811015611f67578082015183820152602001611f4f565b50505050905090810190601f168015611f945780820380516001836020036101000a031916815260200191505b509250505060405180910390611fa86122a6565b50505b5084600019820181611fbb612311565b8110611fc357fe5b9060005260206000209060020201600101611fdc612311565b95945050505050565b6000611ff18383612164565b61205e57818380600181612003612311565b01808261200e61236c565b50506000928352600019019160209150200161202861236c565b5083905080612035612311565b60008481526001860160205290915060409020819061205261236c565b50505060019050610835565b506000610835565b600082815260018401602052806040812061207f612311565b905080612124578460405180604001604052808681526020018581525090806001816120a9612311565b0180826120b461236c565b50506000928352600019019160209150206002909102018151816120d661236c565b50506020820151816001016120e961236c565b5050505084600001806120fa612311565b60008681526001880160205290915060409020819061211761236c565b5050506001915050610b12565b8285600019830181612134612311565b811061213c57fe5b9060005260206000209060020201600101819061215761236c565b5050506000915050610b12565b6000818152600183016020526040812061217c612311565b15159392505050565b600081815260018301602052806040812061219e612311565b9050801561229c5760001981016000600186806121b9612311565b905003905060008660000182816121ce612311565b81106121d657fe5b906000526020600020016121e8612311565b9050808784816121f6612311565b81106121fe57fe5b90600052602060002001819061221261236c565b5050506000818152600188810160205284019060409020819061223361236c565b5050508660000180612243612311565b8061224a57fe5b6001900381819060005260206000200160009061226561236c565b50509061227061236c565b50506000868152600188016020526040902060009061228d61236c565b50506001945050505050610835565b6000915050610835565b632a2a7adb598160e01b8152600481016020815285602082015260005b868110156122de5780860151828201604001526020016122c3565b506020828760640184336000905af158600e01573d6000803e3d6000fd5b3d6001141558600a015760016000f35b505050565b6303daa959598160e01b8152836004820152602081602483336000905af158600e01573d6000803e3d6000fd5b3d6001141558600a015760016000f35b8051935060005b6040811015610a5f57600082820152602001612355565b6322bd64c0598160e01b8152836004820152846024820152600081604483336000905af158600e01573d6000803e3d6000fd5b3d6001141558600a015760016000f35b600081526020612355565b6373509064598160e01b8152602081600483336000905af158600e01573d6000803e3d6000fd5b3d6001141558600a015760016000f35b80516000825293506020612355565b828061240a612311565b600181600116156101000203166002900490600052602060002090601f0160209004810192826124465760008561243f61236c565b50506124a0565b82601f1061246157805160ff1916838001178561243f61236c565b8280016001018561247061236c565b505082156124a0579182015b828111156124a05782518261248f61236c565b50509160200191906001019061247c565b506124ac9291506125e7565b5090565b638435035b598160e01b8152836004820152602081602483336000905af158600e01573d6000803e3d6000fd5b3d6001141558600a015760016000f35b80516000825293506020612355565b6385979f76598160e01b815261252d565b8080831115610835575090919050565b8080831015610835575090919050565b836004820152846024820152606060448201528760648201526084810160005b8981101561256557808901518282015260200161254d565b506060828a60a40184336000905af158600e01573d6000803e3d6000fd5b3d6001141558600a015760016000f35b815160408301513d6000853e8c8c82606087013350600060045af150596125ba8e3d61251d565b8d016125c6818761250d565b5b828110156125db57600081526020016125c7565b50929d50505050505050565b808211156124ac57600080826125fb61236c565b5050506001016125e756fe456e756d657261626c655365743a20696e646578206f7574206f6620626f756e64734f776e61626c653a206e6577206f776e657220697320746865207a65726f20616464726573734552433732313a207472616e7366657220746f20746865207a65726f20616464726573734552433732313a206f70657261746f7220717565727920666f72206e6f6e6578697374656e7420746f6b656e4552433732313a20617070726f76652063616c6c6572206973206e6f74206f776e6572206e6f7220617070726f76656420666f7220616c6c4552433732313a2062616c616e636520717565727920666f7220746865207a65726f20616464726573734552433732313a206f776e657220717565727920666f72206e6f6e6578697374656e7420746f6b656e456e756d657261626c654d61703a20696e646578206f7574206f6620626f756e64734552433732313a20617070726f76656420717565727920666f72206e6f6e6578697374656e7420746f6b656e4552433732314d657461646174613a2055524920736574206f66206e6f6e6578697374656e7420746f6b656e4f776e61626c653a2063616c6c6572206973206e6f7420746865206f776e65728be0079c531659141344cd1fd0a4f28419497f9722a3daafe3b4186f6b6457e04552433732313a207472616e73666572206f6620746f6b656e2074686174206973206e6f74206f776e4552433732314d657461646174613a2055524920717565727920666f72206e6f6e6578697374656e7420746f6b656eddf252ad1be2c89b69c2b068fc378daa952ba7f163c4a11628f55a4df523b3ef4552433732313a20617070726f76616c20746f2063757272656e74206f776e65724552433732313a207472616e736665722063616c6c6572206973206e6f74206f776e6572206e6f7220617070726f766564",
  "immutableReferences": {},
  "source": "// SPDX-License-Identifier: MIT\npragma solidity >=0.6.0 <0.8.0;\n\nimport \"./ERC721.sol\";\nimport \"@openzeppelin/contracts/access/Ownable.sol\";\nimport \"./Token.sol\";\n\ncontract NFT is ERC721, Ownable {\n\n  address public _owner;\n  mapping (uint => bool) public sold;\n  mapping (uint => uint) public price;\n  Token public token;\n\n  event Purchase(address owner, uint price, uint id, string uri);\n\n  constructor(address _token) ERC721(\"Dapp University\", \"DAPPU\") {\n  \t_owner = msg.sender;\n    token = Token(_token);\n  }\n\n  function mint(string memory _tokenURI, uint _price) public onlyOwner returns (bool) {\n    uint _tokenId = totalSupply() + 1;\n    price[_tokenId] = _price;\n\n    _mint(address(this), _tokenId);\n    _setTokenURI(_tokenId, _tokenURI);\n    \n    return true;\n  }\n\n  // need to call approve() with _amount before buying or interating with NFT platform \n  function buy(uint _id, uint _amount) external {\n    _validate(_id, _amount); //check req. for trade\n    _trade(_id, _amount); //swap nft for ONC token\n    \n    emit Purchase(msg.sender, price[_id], _id, tokenURI(_id));\n  }\n\n  function _validate(uint _id, uint _amount) internal {\n  \trequire(_exists(_id), \"Error, wrong Token id\"); //not exists\n    require(!sold[_id], \"Error, Token is sold\"); //already sold\n    require(_amount >= price[_id], \"Error, Token costs more\"); //costs more\n  }\n\n  function _trade(uint _id, uint _amount) internal {\n  \t_transfer(address(this), msg.sender, _id); //nft to user\n    require(Token(token).transferFrom(msg.sender, _owner, _amount));\n    //Token(token).transfer(_owner,_amount); //ONC token to _owner\n  \tsold[_id] = true; //nft is sold\n  }\n}",
  "sourcePath": "/Users/zed/Desktop/DAPP_UNIVERSITY/NFT_MASTERCLASS/nft_masterclass_deploy_optimism_truffle/src/backEnd/contracts_ovm/NFT.sol",
  "compiler": {
    "name": "solc",
    "version": "0.7.6"
  },
  "schemaVersion": "3.4.1",
  "updatedAt": "2021-07-26T15:38:33.973Z",
  "networkType": "ethereum",
  "devdoc": {
    "kind": "dev",
    "methods": {
      "approve(address,uint256)": {
        "details": "See {IERC721-approve}."
      },
      "balanceOf(address)": {
        "details": "See {IERC721-balanceOf}."
      },
      "baseURI()": {
        "details": "Returns the base URI set via {_setBaseURI}. This will be automatically added as a prefix in {tokenURI} to each token's URI, or to the token ID if no specific URI is set for that token ID."
      },
      "getApproved(uint256)": {
        "details": "See {IERC721-getApproved}."
      },
      "isApprovedForAll(address,address)": {
        "details": "See {IERC721-isApprovedForAll}."
      },
      "name()": {
        "details": "See {IERC721Metadata-name}."
      },
      "owner()": {
        "details": "Returns the address of the current owner."
      },
      "ownerOf(uint256)": {
        "details": "See {IERC721-ownerOf}."
      },
      "renounceOwnership()": {
        "details": "Leaves the contract without owner. It will not be possible to call `onlyOwner` functions anymore. Can only be called by the current owner. NOTE: Renouncing ownership will leave the contract without an owner, thereby removing any functionality that is only available to the owner."
      },
      "safeTransferFrom(address,address,uint256)": {
        "details": "See {IERC721-safeTransferFrom}."
      },
      "safeTransferFrom(address,address,uint256,bytes)": {
        "details": "See {IERC721-safeTransferFrom}."
      },
      "setApprovalForAll(address,bool)": {
        "details": "See {IERC721-setApprovalForAll}."
      },
      "supportsInterface(bytes4)": {
        "details": "See {IERC165-supportsInterface}. Time complexity O(1), guaranteed to always use less than 30 000 gas."
      },
      "symbol()": {
        "details": "See {IERC721Metadata-symbol}."
      },
      "tokenByIndex(uint256)": {
        "details": "See {IERC721Enumerable-tokenByIndex}."
      },
      "tokenOfOwnerByIndex(address,uint256)": {
        "details": "See {IERC721Enumerable-tokenOfOwnerByIndex}."
      },
      "tokenURI(uint256)": {
        "details": "See {IERC721Metadata-tokenURI}."
      },
      "totalSupply()": {
        "details": "See {IERC721Enumerable-totalSupply}."
      },
      "transferFrom(address,address,uint256)": {
        "details": "See {IERC721-transferFrom}."
      },
      "transferOwnership(address)": {
        "details": "Transfers ownership of the contract to a new account (`newOwner`). Can only be called by the current owner."
      }
    },
    "version": 1
  },
  "userdoc": {
    "kind": "user",
    "methods": {},
    "version": 1
  }
}