{
  "contractName": "SimpleStorage",
  "abi": [
    {
      "inputs": [
        {
          "internalType": "uint256",
          "name": "x",
          "type": "uint256"
        }
      ],
      "name": "set",
      "outputs": [],
      "stateMutability": "nonpayable",
      "type": "function"
    },
    {
      "inputs": [],
      "name": "get",
      "outputs": [
        {
          "internalType": "uint256",
          "name": "",
          "type": "uint256"
        }
      ],
      "stateMutability": "view",
      "type": "function",
      "constant": true
    }
  ],
  "bytecode": "0x608060405234801561001057600080fd5b50610150806100206000396000f3fe608060405234801561001057600080fd5b50600436106100365760003560e01c806360fe47b11461003b5780636d4ce63c14610057575b600080fd5b610055600480360381019061005091906100c3565b610075565b005b61005f61007f565b60405161006c91906100ff565b60405180910390f35b8060008190555050565b60008054905090565b600080fd5b6000819050919050565b6100a08161008d565b81146100ab57600080fd5b50565b6000813590506100bd81610097565b92915050565b6000602082840312156100d9576100d8610088565b5b60006100e7848285016100ae565b91505092915050565b6100f98161008d565b82525050565b600060208201905061011460008301846100f0565b9291505056fea264697066735822122068b20571a0a08344d8193861675701c6cede821b2e097d87d858524558aa6e7a64736f6c63430008090033",
  "immutableReferences": {},
  "source": "pragma solidity ^0.8.9;\r\n\r\ncontract SimpleStorage {\r\n    uint256 storedData;\r\n\r\n    function set(uint256 x) public {\r\n        storedData = x;\r\n    }\r\n\r\n    function get() public view returns (uint256) {\r\n        return storedData;\r\n    }\r\n}\r\n",
  "sourcePath": "C:/Users/Justin Acevero/dev/Experimental Projects/react_hooks/src/contracts/SimpleStorage.sol",
  "compiler": {
    "name": "solc",
    "version": "0.8.9+commit.e5eed63a.Emscripten.clang"
  },
  "schemaVersion": "3.2.3",
  "updatedAt": "2021-10-16T18:56:34.492Z",
  "networkType": "ethereum",
  "devdoc": {
    "kind": "dev",
    "methods": {},
    "version": 1
  },
  "userdoc": {
    "kind": "user",
    "methods": {},
    "version": 1
  }
}